{
  "_format": "hh-sol-artifact-1",
  "contractName": "AtomicSwap",
  "sourceName": "contracts/AtomicSwap.sol",
  "abi": [
    {
      "anonymous": false,
      "inputs": [
        {
          "indexed": true,
          "internalType": "address",
          "name": "previousOwner",
          "type": "address"
        },
        {
          "indexed": true,
          "internalType": "address",
          "name": "newOwner",
          "type": "address"
        }
      ],
      "name": "OwnershipTransferred",
      "type": "event"
    },
    {
      "anonymous": false,
      "inputs": [
        {
          "indexed": true,
          "internalType": "bytes32",
          "name": "swapId",
          "type": "bytes32"
        },
        {
          "indexed": true,
          "internalType": "address",
          "name": "initiator",
          "type": "address"
        },
        {
          "indexed": true,
          "internalType": "address",
          "name": "participant",
          "type": "address"
        },
        {
          "indexed": false,
          "internalType": "address",
          "name": "token",
          "type": "address"
        },
        {
          "indexed": false,
          "internalType": "uint256",
          "name": "amount",
          "type": "uint256"
        },
        {
          "indexed": false,
          "internalType": "bytes32",
          "name": "hashedSecret",
          "type": "bytes32"
        },
        {
          "indexed": false,
          "internalType": "uint256",
          "name": "timelock",
          "type": "uint256"
        }
      ],
      "name": "SwapInitiated",
      "type": "event"
    },
    {
      "anonymous": false,
      "inputs": [
        {
          "indexed": true,
          "internalType": "bytes32",
          "name": "swapId",
          "type": "bytes32"
        }
      ],
      "name": "SwapRefunded",
      "type": "event"
    },
    {
      "anonymous": false,
      "inputs": [
        {
          "indexed": true,
          "internalType": "bytes32",
          "name": "swapId",
          "type": "bytes32"
        },
        {
          "indexed": false,
          "internalType": "bytes32",
          "name": "secret",
          "type": "bytes32"
        }
      ],
      "name": "SwapWithdrawn",
      "type": "event"
    },
    {
      "inputs": [
        {
          "internalType": "bytes32",
          "name": "_swapId",
          "type": "bytes32"
        }
      ],
      "name": "getSwap",
      "outputs": [
        {
          "internalType": "address",
          "name": "initiator",
          "type": "address"
        },
        {
          "internalType": "address",
          "name": "participant",
          "type": "address"
        },
        {
          "internalType": "address",
          "name": "token",
          "type": "address"
        },
        {
          "internalType": "uint256",
          "name": "amount",
          "type": "uint256"
        },
        {
          "internalType": "bytes32",
          "name": "hashedSecret",
          "type": "bytes32"
        },
        {
          "internalType": "uint256",
          "name": "timelock",
          "type": "uint256"
        },
        {
          "internalType": "bool",
          "name": "withdrawn",
          "type": "bool"
        },
        {
          "internalType": "bool",
          "name": "refunded",
          "type": "bool"
        }
      ],
      "stateMutability": "view",
      "type": "function"
    },
    {
      "inputs": [
        {
          "internalType": "bytes32",
          "name": "_swapId",
          "type": "bytes32"
        },
        {
          "internalType": "address",
          "name": "_participant",
          "type": "address"
        },
        {
          "internalType": "address",
          "name": "_token",
          "type": "address"
        },
        {
          "internalType": "uint256",
          "name": "_amount",
          "type": "uint256"
        },
        {
          "internalType": "bytes32",
          "name": "_hashedSecret",
          "type": "bytes32"
        },
        {
          "internalType": "uint256",
          "name": "_timelock",
          "type": "uint256"
        }
      ],
      "name": "initiateSwap",
      "outputs": [],
      "stateMutability": "payable",
      "type": "function"
    },
    {
      "inputs": [
        {
          "internalType": "bytes32",
          "name": "_swapId",
          "type": "bytes32"
        }
      ],
      "name": "isRefundable",
      "outputs": [
        {
          "internalType": "bool",
          "name": "",
          "type": "bool"
        }
      ],
      "stateMutability": "view",
      "type": "function"
    },
    {
      "inputs": [
        {
          "internalType": "bytes32",
          "name": "_swapId",
          "type": "bytes32"
        },
        {
          "internalType": "bytes32",
          "name": "_secret",
          "type": "bytes32"
        }
      ],
      "name": "isWithdrawable",
      "outputs": [
        {
          "internalType": "bool",
          "name": "",
          "type": "bool"
        }
      ],
      "stateMutability": "view",
      "type": "function"
    },
    {
      "inputs": [],
      "name": "owner",
      "outputs": [
        {
          "internalType": "address",
          "name": "",
          "type": "address"
        }
      ],
      "stateMutability": "view",
      "type": "function"
    },
    {
      "inputs": [
        {
          "internalType": "bytes32",
          "name": "_swapId",
          "type": "bytes32"
        }
      ],
      "name": "refund",
      "outputs": [],
      "stateMutability": "nonpayable",
      "type": "function"
    },
    {
      "inputs": [],
      "name": "renounceOwnership",
      "outputs": [],
      "stateMutability": "nonpayable",
      "type": "function"
    },
    {
      "inputs": [
        {
          "internalType": "bytes32",
          "name": "",
          "type": "bytes32"
        }
      ],
      "name": "swaps",
      "outputs": [
        {
          "internalType": "address",
          "name": "initiator",
          "type": "address"
        },
        {
          "internalType": "address",
          "name": "participant",
          "type": "address"
        },
        {
          "internalType": "address",
          "name": "token",
          "type": "address"
        },
        {
          "internalType": "uint256",
          "name": "amount",
          "type": "uint256"
        },
        {
          "internalType": "bytes32",
          "name": "hashedSecret",
          "type": "bytes32"
        },
        {
          "internalType": "uint256",
          "name": "timelock",
          "type": "uint256"
        },
        {
          "internalType": "bool",
          "name": "withdrawn",
          "type": "bool"
        },
        {
          "internalType": "bool",
          "name": "refunded",
          "type": "bool"
        },
        {
          "internalType": "bool",
          "name": "exists",
          "type": "bool"
        }
      ],
      "stateMutability": "view",
      "type": "function"
    },
    {
      "inputs": [
        {
          "internalType": "address",
          "name": "newOwner",
          "type": "address"
        }
      ],
      "name": "transferOwnership",
      "outputs": [],
      "stateMutability": "nonpayable",
      "type": "function"
    },
    {
      "inputs": [
        {
          "internalType": "bytes32",
          "name": "_swapId",
          "type": "bytes32"
        },
        {
          "internalType": "bytes32",
          "name": "_secret",
          "type": "bytes32"
        }
      ],
      "name": "withdraw",
      "outputs": [],
      "stateMutability": "nonpayable",
      "type": "function"
    }
  ],
  "bytecode": "0x608060405234801561001057600080fd5b50600160005561001f33610024565b610076565b600180546001600160a01b038381166001600160a01b0319831681179093556040519116919082907f8be0079c531659141344cd1fd0a4f28419497f9722a3daafe3b4186f6b6457e090600090a35050565b611444806100856000396000f3fe6080604052600436106100915760003560e01c80638da5cb5b116100595780638da5cb5b14610173578063a533d13c1461019b578063d0f761c0146101cb578063eb84e7f2146101eb578063f2fde38b146102c157600080fd5b80633b2433d6146100965780633da0e66e146100ab578063636151491461011e578063715018a61461013e5780637249fbb614610153575b600080fd5b6100a96100a43660046112c9565b6102e1565b005b3480156100b757600080fd5b506100cb6100c6366004611321565b6107a1565b604080516001600160a01b03998a168152978916602089015295909716948601949094526060850192909252608084015260a0830152151560c082015290151560e0820152610100015b60405180910390f35b34801561012a57600080fd5b506100a961013936600461133a565b61089f565b34801561014a57600080fd5b506100a9610c3e565b34801561015f57600080fd5b506100a961016e366004611321565b610c52565b34801561017f57600080fd5b506001546040516001600160a01b039091168152602001610115565b3480156101a757600080fd5b506101bb6101b636600461133a565b610f33565b6040519015158152602001610115565b3480156101d757600080fd5b506101bb6101e6366004611321565b611071565b3480156101f757600080fd5b50610268610206366004611321565b600260208190526000918252604090912080546001820154928201546003830154600484015460058501546006909501546001600160a01b039485169685169593909416939192909160ff808216916101008104821691620100009091041689565b604080516001600160a01b039a8b168152988a1660208a015296909816958701959095526060860193909352608085019190915260a0840152151560c0830152151560e082015290151561010082015261012001610115565b3480156102cd57600080fd5b506100a96102dc36600461135c565b611132565b6102e96111a8565b60008681526002602052604090206006015462010000900460ff161561034c5760405162461bcd60e51b81526020600482015260136024820152725377617020616c72656164792065786973747360681b60448201526064015b60405180910390fd5b6001600160a01b0385166103985760405162461bcd60e51b8152602060048201526013602482015272125b9d985b1a59081c185c9d1a58da5c185b9d606a1b6044820152606401610343565b600083116103e85760405162461bcd60e51b815260206004820152601d60248201527f416d6f756e74206d7573742062652067726561746572207468616e20300000006044820152606401610343565b4281116104375760405162461bcd60e51b815260206004820152601e60248201527f54696d656c6f636b206d75737420626520696e207468652066757475726500006044820152606401610343565b8161047c5760405162461bcd60e51b8152602060048201526015602482015274125b9d985b1a59081a185cda1959081cd958dc995d605a1b6044820152606401610343565b6001600160a01b0384166104d5578234146104d05760405162461bcd60e51b8152602060048201526014602482015273125b98dbdc9c9958dd0811551208185b5bdd5b9d60621b6044820152606401610343565b61059c565b34156105235760405162461bcd60e51b815260206004820152601d60248201527f455448206e6f74206e656564656420666f7220746f6b656e20737761700000006044820152606401610343565b6040516323b872dd60e01b8152336004820152306024820152604481018490526001600160a01b038516906323b872dd906064016020604051808303816000875af1158015610576573d6000803e3d6000fd5b505050506040513d601f19601f8201168201806040525081019061059a9190611377565b505b604051806101200160405280336001600160a01b03168152602001866001600160a01b03168152602001856001600160a01b03168152602001848152602001838152602001828152602001600015158152602001600015158152602001600115158152506002600088815260200190815260200160002060008201518160000160006101000a8154816001600160a01b0302191690836001600160a01b0316021790555060208201518160010160006101000a8154816001600160a01b0302191690836001600160a01b0316021790555060408201518160020160006101000a8154816001600160a01b0302191690836001600160a01b03160217905550606082015181600301556080820151816004015560a0820151816005015560c08201518160060160006101000a81548160ff02191690831515021790555060e08201518160060160016101000a81548160ff0219169083151502179055506101008201518160060160026101000a81548160ff021916908315150217905550905050846001600160a01b0316336001600160a01b0316877f9fba3d24d594c6fe983302709ea37fdeceb7e556ea94cf695c806048e8ef9e858787878760405161078794939291906001600160a01b0394909416845260208401929092526040830152606082015260800190565b60405180910390a46107996001600055565b505050505050565b600081815260026020818152604080842081516101208101835281546001600160a01b039081168252600183015481169482019490945293810154909216908301526003810154606083015260048101546080830152600581015460a08301526006015460ff808216151560c08401526101008083048216151560e08501526201000090920416151590820181905282918291829182918291829182919061085b5760405162461bcd60e51b815260040161034390611399565b806000015181602001518260400151836060015184608001518560a001518660c001518760e001519850985098509850985098509850985050919395975091939597565b6108a76111a8565b6000828152600260205260409020600601548290829062010000900460ff166108e25760405162461bcd60e51b815260040161034390611399565b60008281526002602052604090206006015460ff16156109385760405162461bcd60e51b815260206004820152601160248201527020b63932b0b23c903bb4ba34323930bbb760791b6044820152606401610343565b600082815260026020526040902060060154610100900460ff16156109925760405162461bcd60e51b815260206004820152601060248201526f105b1c9958591e481c99599d5b99195960821b6044820152606401610343565b600082815260026020818152604092839020600401548351918201859052920160408051601f19818403018152908290526109cc916113c6565b602060405180830381855afa1580156109e9573d6000803e3d6000fd5b5050506040513d601f19601f82011682018060405250810190610a0c91906113f5565b14610a4a5760405162461bcd60e51b815260206004820152600e60248201526d125b9d985b1a59081cd958dc995d60921b6044820152606401610343565b6000828152600260205260409020600501544210610a9d5760405162461bcd60e51b815260206004820152601060248201526f151a5b595b1bd8dac8195e1c1a5c995960821b6044820152606401610343565b600084815260026020526040902060018101546001600160a01b03163314610b075760405162461bcd60e51b815260206004820152601d60248201527f4f6e6c79207061727469636970616e742063616e2077697468647261770000006044820152606401610343565b60068101805460ff1916600117905560028101546001600160a01b0316610b6e57600181015460038201546040516001600160a01b039092169181156108fc0291906000818181858888f19350505050158015610b68573d6000803e3d6000fd5b50610bf3565b60028101546001820154600383015460405163a9059cbb60e01b81526001600160a01b039283166004820152602481019190915291169063a9059cbb906044016020604051808303816000875af1158015610bcd573d6000803e3d6000fd5b505050506040513d601f19601f82011682018060405250810190610bf19190611377565b505b847fab7f1bbfb937adff2a70a94108db9e1b9f0b4b78aca33abe667a7c55c76a078285604051610c2591815260200190565b60405180910390a2505050610c3a6001600055565b5050565b610c46611201565b610c50600061125b565b565b610c5a6111a8565b600081815260026020526040902060060154819062010000900460ff16610c935760405162461bcd60e51b815260040161034390611399565b60008181526002602052604090206006015460ff1615610ce95760405162461bcd60e51b815260206004820152601160248201527020b63932b0b23c903bb4ba34323930bbb760791b6044820152606401610343565b600081815260026020526040902060060154610100900460ff1615610d435760405162461bcd60e51b815260206004820152601060248201526f105b1c9958591e481c99599d5b99195960821b6044820152606401610343565b600081815260026020526040902060050154421015610d9b5760405162461bcd60e51b8152602060048201526014602482015273151a5b595b1bd8dac81b9bdd08195e1c1a5c995960621b6044820152606401610343565b6000818152600260205260409020546001600160a01b03163314610e015760405162461bcd60e51b815260206004820152601960248201527f4f6e6c7920696e69746961746f722063616e20726566756e64000000000000006044820152606401610343565b600082815260026020819052604090912060068101805461ff001916610100179055908101546001600160a01b0316610e7757805460038201546040516001600160a01b039092169181156108fc0291906000818181858888f19350505050158015610e71573d6000803e3d6000fd5b50610ef9565b60028101548154600383015460405163a9059cbb60e01b81526001600160a01b039283166004820152602481019190915291169063a9059cbb906044016020604051808303816000875af1158015610ed3573d6000803e3d6000fd5b505050506040513d601f19601f82011682018060405250810190610ef79190611377565b505b60405183907fc506b8643b74e7a2fbb400c79e929dd5dfffb301fb07afb3b0e8e7c47925cf5a90600090a25050610f306001600055565b50565b600082815260026020818152604080842081516101208101835281546001600160a01b039081168252600183015481169482019490945293810154909216908301526003810154606083015260048101546080830152600581015460a08301526006015460ff808216151560c08401526101008083048216151560e08501526201000090920416158015918301829052610fcf57508060c00151155b8015610fdd57508060e00151155b801561105a57508060800151600284604051602001610ffe91815260200190565b60408051601f1981840301815290829052611018916113c6565b602060405180830381855afa158015611035573d6000803e3d6000fd5b5050506040513d601f19601f8201168201806040525081019061105891906113f5565b145b801561106957508060a0015142105b949350505050565b600081815260026020818152604080842081516101208101835281546001600160a01b039081168252600183015481169482019490945293810154909216908301526003810154606083015260048101546080830152600581015460a08301526006015460ff808216151560c08401526101008083048216151560e0850152620100009092041615801591830182905261110d57508060c00151155b801561111b57508060e00151155b801561112b57508060a001514210155b9392505050565b61113a611201565b6001600160a01b03811661119f5760405162461bcd60e51b815260206004820152602660248201527f4f776e61626c653a206e6577206f776e657220697320746865207a65726f206160448201526564647265737360d01b6064820152608401610343565b610f308161125b565b6002600054036111fa5760405162461bcd60e51b815260206004820152601f60248201527f5265656e7472616e637947756172643a207265656e7472616e742063616c6c006044820152606401610343565b6002600055565b6001546001600160a01b03163314610c505760405162461bcd60e51b815260206004820181905260248201527f4f776e61626c653a2063616c6c6572206973206e6f7420746865206f776e65726044820152606401610343565b600180546001600160a01b038381166001600160a01b0319831681179093556040519116919082907f8be0079c531659141344cd1fd0a4f28419497f9722a3daafe3b4186f6b6457e090600090a35050565b80356001600160a01b03811681146112c457600080fd5b919050565b60008060008060008060c087890312156112e257600080fd5b863595506112f2602088016112ad565b9450611300604088016112ad565b9350606087013592506080870135915060a087013590509295509295509295565b60006020828403121561133357600080fd5b5035919050565b6000806040838503121561134d57600080fd5b50508035926020909101359150565b60006020828403121561136e57600080fd5b61112b826112ad565b60006020828403121561138957600080fd5b8151801515811461112b57600080fd5b60208082526013908201527214ddd85c08191bd95cc81b9bdd08195e1a5cdd606a1b604082015260600190565b6000825160005b818110156113e757602081860181015185830152016113cd565b506000920191825250919050565b60006020828403121561140757600080fd5b505191905056fea2646970667358221220d5d3107120c3be72f699239ffd5e773f538c12bbdb4ec340234875b1ea57269564736f6c63430008130033",
  "linkReferences": {},
  "deployedLinkReferences": {}
}